S015000050726F796563746F46696E616C2E73726563D0
S11300000C94B5000C94D2000C94D2000C94D20041
S11300100C94D2000C94D2000C94D2000C94D20014
S11300200C94D2000C94D2000C94E4000C94D200F2
S11300300C94D2000C94D2000C94D2000C94D200F4
S11300400C94D2000C94D2000C94D2000C94D200E4
S11300500C94D2000C94D2000C94D2000C94D200D4
S11300600C94D2000C94D2006E616E00696E66002E
S113007000407A10F35A00A0724E18090010A5D45B
S1130080E80000E87648170000E40B54020000CAB8
S11300909A3B000000E1F5050000809698000000FE
S11300A040420F000000A08601000000102700005D
S11300B00000E803000000006400000000000A00E3
S11300C0000000000100000000002C76D888DC67E6
S11300D04F0823DFC1DFAE59E1B1B796E5E3E4533E
S11300E0C63AE651997696E8E6C28426EB898C9B5B
S11300F062ED407C6FFCEFBC9C9F40F2BAA56FA5FB
S1130100F490055A2AF75C936B6CF9676DC11BFC7C
S1130110E0E40D47FEF520E6B500D0ED902E030097
S1130120943577050080841E080000204E0A0000E4
S113013000C80C333333330F986E12831141EF8DA3
S11301402114893BE65516CFFEE6DB18D1844B38E3
S11301501BF77C1D901DA4BBE424203284725E2214
S11301608100C9F124ECA1E53D2711241FBECFEF86
S1130170D8E0DEBFCDBF11E0A0E0B1E0E0E8F4E1FB
S113018002C005900D92A230B107D9F721E0A2E098
S1130190B1E001C01D92AC30B207E1F70E94CB017F
S11301A00C943E0A0C94000020E030E040E351E45B
S11301B00E94D903882324F485B1806285B9089507
S11301C085B18F7D85B908951F920F920FB60F9256
S11301D011248F9380910701811103C081E08093E2
S11301E007018F910F900FBE0F901F90189590915B
S11301F008012FE5829F900D112498BD08959091D8
S11302000A012FE5829F900D11249C5E97BD0895ED
S1130210843639F48BB184608BB98BB1877F8BB909
S11302200895823731F48BB18B7F8BB98BB18860A1
S11302308BB90895843639F48BB181608BB98BB155
S11302408D7F8BB90895823731F48BB18E7F8BB952
S11302508BB182608BB90895809101010E94F700EF
S1130260809101010E94FF0080910001882339F0F0
S113027084E60E94080184E60E941A01089582E738
S11302800E94080182E70E941A01089582E70E94F1
S1130290080182E70E941A012FE78BE898E02150B9
S11302A080409040E1F700C0000084E60E9408010D
S11302B082E70E941A0184E187BD84E688BD2FE7A6
S11302C086EC93E1215080409040E1F700C00000AB
S11302D00E942C01089582E70E94080184E187BDF1
S11302E084E688BD2FEF85E796E121508040904059
S11302F0E1F700C000000E942C01089582E70E94EB
S1130300080182E70E941A012FEF83EC99E0215043
S113031080409040E1F700C0000084E60E941A018A
S113032084E187BD84E688BD2FEF81EE94E02150FF
S113033080409040E1F700C000000E942C01089525
S113034085B1826085B980E58A95F1F785B18D7FA5
S113035085B98FE193E00197F1F700C00000109296
S11303608500109284000895609186007091870042
S1130370072E000C880B990B0E94E00323E738E654
S113038041E95DE30E94950422EF32E54EE052E438
S11303900E946C0308958AB181608AB98AB182602F
S11303A08AB98AB184608AB98AB188608AB984E6D4
S11303B00E94080184E60E941A0184B1826084B913
S11303C084B18E7F84B984B1806284B985B18F7D14
S11303D085B98AB180648AB98AB180628AB984B5E0
S11303E0806884BD84B5806284BD84B5836084BD27
S11303F085B5856085BD81E00E94F70081E00E949B
S1130400FF00ECE7F0E080818083AAE7B0E08C9104
S113041087608C93CEE7D0E08881816088838C915B
S113042080688C9380818083E1E8F0E08081836838
S1130430808380818F7B808380E286BBEFE6F0E05F
S113044080818062808378948FE99FE00197F1F73F
S113045000C0000000E00F2EC12CD12CF0E5EF2EDF
S1130460F1E4FF2EF02DC0E0D0E017E0EAE7F0E081
S113047080818064808380917A0084FFFCCFEAE7E6
S1130480F0E0808180618083809178009091790090
S1130490BC01660F771F660F771F680F791F80E016
S11304A090E00E94DE0320E030E040E85AE30E943E
S11304B0950428E93EE648EB52EC0E94950423ECAF
S11304C035ED40EE53E40E946D034B015C0120972F
S11304D021F40E94A001C1E0D0E0809107018823AB
S11304E041F00E94B4016B017C0110920701C0E04D
S11304F0D0E08FEF9CE70197F1F700C0000077246C
S1130500739420E030E040E151E4C701B6010E9459
S1130510D90318160CF4712C81E0113009F080E035
S11305208721D9F120E030E040EE50E4C701B60164
S11305300E94D9031816CCF082E70E94080182E7D2
S11305400E941A019FEF28E586E0915020408040E8
S1130550E1F700C0000020E030E040E05FE3C701C5
S1130560B6010E946D036B017C0120E030E046E19E
S113057053E4C501B4010E94D90318160CF461C0F8
S11305800E9446019FEF29EF80E091502040804077
S1130590E1F700C0000010E054C07724739420E019
S11305A030E046E153E4C501B4010E94900488237D
S11305B00CF4712C81E0013009F080E08721A9F06E
S11305C09FEF21E58CE1915020408040E1F700C08D
S11305D000000E946B019FEF25EA8EE091502040BD
S11305E08040E1F700C0000000E020E030E040E09F
S11305F05FEBC501B4010E94D903181664F083E0CF
S113060090E090930901809308018FEF9FEF9093FE
S11306100B0180930A0120E030E040E850E4C5017A
S1130620B4010E949004882364F083E090E09093E6
S11306300B0180930A018DEF9FEF90930901809342
S1130640080120910201309103014091040150916D
S11306500501C701B6010E94D903811106C080912A
S113066006018F5F809306010AC0C0920201D092F6
S11306700301E0920401F0920501109206018091B9
S11306800601853061F40E947E019FEF21EE84E033
S1130690915020408040E1F700C0000001E020E0DC
S11306A030E040E151E4C701B6010E9490041816FD
S11306B00CF411E020E030E040EA52E4C501B4015A
S11306C00E94D90318160CF001E00E942C01C70106
S11306D0B6010E94D400CACE5058BB27AA270E9454
S11306E084030C9456040E94480438F00E944F047A
S11306F020F039F49F3F19F426F40C9445040EF4C9
S1130700E095E7FB0C943F04E92F0E94670458F33B
S1130710BA17620773078407950720F079F4A6F5E2
S11307200C9489040EF4E0950B2EBA2FA02D0B0126
S1130730B90190010C01CA01A0011124FF27591B22
S113074099F0593F50F4503E68F11A16F040A22F28
S1130750232F342F4427585FF3CF46953795279599
S1130760A795F0405395C9F77EF41F16BA0B620B98
S1130770730B840BBAF09150A1F0FF0FBB1F661FDF
S1130780771F881FC2F70EC0BA0F621F731F841F22
S113079048F4879577956795B795F7959E3F08F048
S11307A0B0CF9395880F08F09927EE0F979587950A
S11307B008950E941B0408F481E00895E89409C098
S11307C097FB3EF490958095709561957F4F8F4F80
S11307D09F4F9923A9F0F92F96E9BB279395F69596
S11307E0879577956795B795F111F8CFFAF4BB0F14
S11307F011F460FF1BC06F5F7F4F8F4F9F4F16C078
S1130800882311F096E911C0772321F09EE8872F01
S1130810762F05C0662371F096E8862F70E060E0BD
S11308202AF09A95660F771F881FDAF7880F969536
S1130830879597F90895990F0008550FAA0BE0E8DA
S1130840FEEF16161706E807F907C0F0121613068E
S1130850E407F50798F0621B730B840B950B39F4CE
S11308600A2661F0232B242B252B21F408950A2634
S113087009F4A140A6958FEF811D811D089597F974
S11308809F6780E870E060E008959FEF80EC089532
S113089000240A941616170618060906089500245B
S11308A00A9412161306140605060895092E0394D5
S11308B0000C11F4882352F0BB0F40F4BF2B11F449
S11308C060FF04C06F5F7F4F8F4F9F4F089557FDA8
S11308D09058440F551F59F05F3F71F04795880FAA
S11308E097FB991F61F09F3F79F087950895121641
S11308F013061406551FF2CF4695F1DF08C01616ED
S113090017061806991FF1CF86957105610508949D
S11309100895E894BB2766277727CB0197F90895B4
S11309200E941B0408F48FEF08950E94A8040C94FD
S113093056040E94480438F00E944F0420F0952386
S113094011F00C943F040C94450411240C948A0473
S11309500E94670470F3959FC1F3950F50E0551FF3
S1130960629FF001729FBB27F00DB11D639FAA2700
S1130970F00DB11DAA1F649F6627B00DA11D661F4F
S1130980829F2227B00DA11D621F739FB00DA11D70
S1130990621F839FA00D611D221F749F3327A00D2A
S11309A0611D231F849F600D211D822F762F6A2FC6
S11309B011249F5750409AF0F1F088234AF0EE0F2B
S11309C0FF1FBB1F661F771F881F91505040A9F758
S11309D09E3F510580F00C943F040C948A045F3FC1
S11309E0E4F3983ED4F3869577956795B795F79594
S11309F0E7959F5FC1F7FE2B880F911D969587950C
S1130A0097F90895A0E1B0E0E8E0F5E00C947F08E0
S1130A107C011B016A01FC0117821682838181FF1C
S1130A2044C39E012F5F3F4F3901F7019381F101C8
S1130A3093FD859193FF81911F01882309F431C3AC
S1130A40853239F493FD859193FF81911F0185329D
S1130A5039F4B70190E00E94A40956016501E5CF7D
S1130A6010E0512C912CFFE1F915D8F08B3279F07C
S1130A7038F4803279F08332A1F4F92DF0612EC07C
S1130A808D3261F0803369F4292D21602DC0392D18
S1130A903260932E892D8460982E2AC0E92DE86057
S1130AA015C097FC2DC020ED280F2A3088F496FE3F
S1130AB006C03AE0139F200D1124122F19C08AE0BA
S1130AC0589E200D1124522EE92DE0629E2E10C056
S1130AD08E3231F496FCE5C2F92DF0649F2E08C0E5
S1130AE08C3621F4292D2068922E02C0883641F4D8
S1130AF0F10193FD859193FF81911F018111B3CF82
S1130B009BEB980F933020F4992D9061805E07C081
S1130B109BE9980F933008F066C1992D9F7E96FF4C
S1130B2016E09F73992E853619F49064992E08C0A7
S1130B30863621F4392F3068932E02C011111150DA
S1130B4097FE07C01C3350F444244394410E27E01D
S1130B500BC0183038F027E017E005C027E09CE30D
S1130B60492E02C0212F412C560184E0A80EB11C4D
S1130B70F6016081718182819381042DA3010E9419
S1130B80B6086C01F981FC87F0FF02C0F3FF06C0D0
S1130B9091FC06C092FE06C000E205C00DE203C04F
S1130BA00BE201C000E08C858C7019F001115AC26F
S1130BB09BC297FE10C04C0CFC85F4FF04C08A81D4
S1130BC0813309F44A94141474F528E0241578F553
S1130BD088E0482E2CC096FC2AC0812F90E08C150A
S1130BE09D059CF03CEFC3163FEFD30674F0892DAE
S1130BF08068982E0AC0E2E0F0E0EC0FFD1FE10FE0
S1130C00F11D8081803319F411501111F4CF97FE36
S1130C100EC044244394410E812F90E0C816D90697
S1130C202CF41C1904C04424439401C010E097FE22
S1130C3006C01C141D0434F4C601019605C085E0E9
S1130C4090E002C081E090E001110196112331F09F
S1130C50212F30E02F5F3F4F820F931F252D30E06F
S1130C608217930714F4581A01C0512C892D8970E6
S1130C7049F4552039F0B70180E290E00E94A409BC
S1130C805A94F7CF002329F0B701802F90E00E94F7
S1130C90A40993FC09C0552039F0B70180E390E022
S1130CA00E94A4095A94F7CF97FE4CC04601D7FE80
S1130CB002C0812C912CC60188199909F301E80F0F
S1130CC0F91FFE87ED87960124193109388B2F8788
S1130CD0012F10E01195019511093FEF831693063A
S1130CE029F4B7018EE290E00E94A409C814D90443
S1130CF04CF08F8598898815990524F4ED85FE8537
S1130D00818101C080E3F1E08F1A91082D853E8531
S1130D102F5F3F4F3E872D87801691062CF0B70139
S1130D2090E00E94A409D9CFC814D90441F49A814F
S1130D30963320F4953319F43C8534FF81E3B701ED
S1130D4090E04EC08A81813319F09C859F7E9C87F8
S1130D50B70190E00E94A409111105C094FC18C0C9
S1130D6085E690E017C0B7018EE290E00E94A409E6
S1130D701E5F82E001E0080FF301E80FF11D80819E
S1130D80B70190E00E94A409802F0113F3CFE6CFAE
S1130D9085E490E0B7010E94A409D7FC06C0C11401
S1130DA0D10441F4EC85E4FF05C0D194C194D10889
S1130DB08DE201C08BE2B70190E00E94A40980E3B8
S1130DC02AE0C216D1042CF08F5FFAE0CF1AD108C2
S1130DD0F7CFB70190E00E94A409B701C601C096FD
S1130DE00E94A40954C1833631F0833779F08335E6
S1130DF009F056C020C0560132E0A30EB11CF60122
S1130E008081898301E010E0630112C05601F2E0A1
S1130E10AF0EB11CF601C080D18096FE03C0612FD5
S1130E2070E002C06FEF7FEFC6010E9499098C0148
S1130E30F92DFF7714C0560122E0A20EB11CF60171
S1130E40C080D18096FE03C0612F70E002C06FEFB6
S1130E507FEFC6010E948E098C01F92DF0689F2E48
S1130E60F3FD1AC0852D90E008171907A8F4B701FF
S1130E7080E290E00E94A4095A94F4CFF60197FC12
S1130E80859197FE81916F01B70190E00E94A409BA
S1130E9051105A94015011090115110579F7F7C041
S1130EA0843611F0893661F5560197FE09C024E0B5
S1130EB0A20EB11CF60160817181828193810AC006
S1130EC0F2E0AF0EB11CF60160817181072E000CB7
S1130ED0880B990BF92DFF769F2E97FF09C09095EB
S1130EE08095709561957F4F8F4F9F4FF0689F2E2F
S1130EF02AE030E0A3010E94E009C82EC6183FC0D2
S1130F00092D853721F40F7E2AE030E01DC0097FCA
S1130F108F3691F018F4883559F0C3C0803719F032
S1130F20883711F0BEC0006104FF09C0046007C027
S1130F3094FE08C0066006C028E030E005C020E149
S1130F4030E002C020E132E0560107FF09C084E02E
S1130F50A80EB11CF601608171818281938108C061
S1130F60F2E0AF0EB11CF6016081718180E090E087
S1130F70A3010E94E009C82EC6180F77902E96FE92
S1130F800BC0092D0E7FC11650F494FE0AC092FCCA
S1130F9008C0092D0E7E05C0DC2C092D03C0DC2CF5
S1130FA001C0D12E04FF0DC0FE01EC0DF11D8081A6
S1130FB0803311F4097E09C002FF06C0D394D39490
S1130FC004C0802F867809F0D39403FD11C000FF7C
S1130FD006C01C2DD51480F4150D1D190DC0D51493
S1130FE058F4B70180E290E00E94A409D394F7CFAB
S1130FF0D51410F45D1801C0512C04FF10C0B701C2
S113100080E390E00E94A40902FF17C001FD03C021
S113101088E790E002C088E590E0B7010CC0802F1B
S1131020867859F001FF02C08BE201C080E207FD1F
S11310308DE2B70190E00E94A409C11638F4B7010B
S113104080E390E00E94A4091150F7CFCA94F30101
S1131050EC0DF11D8081B70190E00E94A409C1103C
S1131060F5CF15C0F4E0F51560F584E0581A93FE49
S11310701FC0011127C02C8523FF2AC008E610E0F9
S1131080392D3071932EF8018491811124C055209B
S113109009F4E4CCB70180E290E00E94A4095A94D8
S11310A0F6CFF7018681978126C08FEF9FEF23C08B
S11310B0B70180E290E00E94A4095A945110F8CF3D
S11310C0D8CF512CB701802F90E00E94A409D3CF30
S11310D00CE610E0D5CF91108052B70190E00E9449
S11310E0A4090F5F1F4FCFCF23E0251510F483E031
S11310F0BDCF512CC0CF6096E2E10C949B082F9297
S11311003F924F925F926F927F928F929F92AF9293
S1131110BF92CF92DF92EF92FF920F931F93CF93E0
S1131120DF93CDB7DEB7CA1BDB0B0FB6F894DEBF77
S11311300FBECDBF09942A88398848885F846E849D
S11311407D848C849B84AA84B984C884DF80EE80E7
S1131150FD800C811B81AA81B981CE0FD11D0FB6F0
S1131160F894DEBF0FBECDBFED010895283008F01E
S113117027E03327DA01990F311D87FD916000962E
S11311806105710539F432602E5F3D9330E32A9591
S1131190E1F708959F3F30F080387105610509F04B
S11311A03C5F3C5F3D93913008F08068911DDF9374
S11311B0CF931F930F93FF92EF92192F987F9695D9
S11311C0E92F96959695E90FFF27E653FF4F992748
S11311D03327EE24FF24A701E70105900894079420
S11311E028F4360FE71EF81E491F511D660F771F9E
S11311F0881F991F0694A1F70590079428F4E70E19
S1131200F81E491F561FC11D770F881F991F661F9F
S11312100694A1F70590079428F4F80E491F561F69
S1131220C71FD11D880F991F661F771F0694A1F74A
S11312300590079420F4490F561FC71FD81F990F14
S1131240661F771F881F0694A9F78491109517705D
S113125041F0D695C79557954795F794E7941A9515
S1131260C1F7E0E7F0E06894159015913591659128
S1131270959105907FE27395E118F10A430B560BA3
S1131280C90BD009C0F7E10CF11E431F561FC91F3B
S1131290D01D7EF4703311F48A95E6CFE8940150A2
S11312A030F0080F0AF40027021708F4202F2395C2
S11312B0022F7A3328F079E37D932A95E9F710C059
S11312C07D932A9589F60694979567953795179592
S11312D01794E118F10A430B560BC90BD00998F087
S11312E023957E9173957A3308F070E37C932013F1
S11312F0B8F77E9170617D9330F0839571E37D93AF
S113130070E32A95E1F71124EF90FF900F911F915C
S1131310CF91DF91992787FD90950895FC01059061
S1131320615070400110D8F7809590958E0F9F1FE3
S11313300895FC016150704001900110D8F7809528
S113134090958E0F9F1F08950F931F93CF93DF9354
S1131350FB01238121FD03C08FEF9FEF2CC022FFEF
S113136016C046815781248135814217530744F4BE
S1131370A081B1819D012F5F3F4F318320838C93E6
S1131380268137812F5F3F4F3783268314C08B011B
S1131390EC01FB010084F185E02D0995892BE1F630
S11313A0D80116968D919C911797019617969C9348
S11313B08E931697CE01DF91CF911F910F910895CF
S11313C0FA01AA27283051F1203181F1E8946F9372
S11313D06E7F6E5F7F4F8F4F9F4FAF4FB1E03ED018
S11313E0B4E03CD0670F781F891F9A1FA11D680FB6
S11313F0791F8A1F911DA11D6A0F711D811D911DE9
S1131400A11D20D009F468943F912AE0269F11245D
S11314103019305D3193DEF6CF010895462F4770C1
S1131420405D4193B3E00FD0C9F7F6CF462F4F701C
S1131430405D4A3318F0495D31FD4052419302D07A
S1131440A9F7EACFB4E0A695979587957795679520
S1131450BA95C9F700976105710508959B01AC0120
S11314600A2E06945795479537952795BA95C9F747
S1131470620F731F841F951FA01D0895F894FFCF5A
S1051480010164
S9030000FC
